{
  "contractName": "Faucet",
  "abi": [
    {
      "inputs": [],
      "name": "numberOfFunders",
      "outputs": [
        {
          "internalType": "uint256",
          "name": "",
          "type": "uint256"
        }
      ],
      "stateMutability": "view",
      "type": "function"
    },
    {
      "inputs": [],
      "name": "owner",
      "outputs": [
        {
          "internalType": "address",
          "name": "",
          "type": "address"
        }
      ],
      "stateMutability": "view",
      "type": "function"
    },
    {
      "inputs": [],
      "name": "testNum",
      "outputs": [
        {
          "internalType": "uint256",
          "name": "",
          "type": "uint256"
        }
      ],
      "stateMutability": "view",
      "type": "function"
    },
    {
      "stateMutability": "payable",
      "type": "receive"
    },
    {
      "inputs": [],
      "name": "emitLog",
      "outputs": [
        {
          "internalType": "bytes32",
          "name": "",
          "type": "bytes32"
        }
      ],
      "stateMutability": "pure",
      "type": "function"
    },
    {
      "inputs": [],
      "name": "addFunds",
      "outputs": [],
      "stateMutability": "payable",
      "type": "function"
    },
    {
      "inputs": [
        {
          "internalType": "uint256",
          "name": "withdrawAmount",
          "type": "uint256"
        }
      ],
      "name": "withdraw",
      "outputs": [],
      "stateMutability": "payable",
      "type": "function"
    },
    {
      "inputs": [],
      "name": "getAllFunders",
      "outputs": [
        {
          "internalType": "address[]",
          "name": "",
          "type": "address[]"
        }
      ],
      "stateMutability": "view",
      "type": "function"
    },
    {
      "inputs": [
        {
          "internalType": "uint8",
          "name": "index",
          "type": "uint8"
        }
      ],
      "name": "getFunderAtIndex",
      "outputs": [
        {
          "internalType": "address",
          "name": "",
          "type": "address"
        }
      ],
      "stateMutability": "view",
      "type": "function"
    },
    {
      "inputs": [],
      "name": "test1",
      "outputs": [],
      "stateMutability": "nonpayable",
      "type": "function"
    },
    {
      "inputs": [],
      "name": "test2",
      "outputs": [],
      "stateMutability": "nonpayable",
      "type": "function"
    }
  ],
  "bytecode": "0x608060405234801561001057600080fd5b50336000806101000a81548173ffffffffffffffffffffffffffffffffffffffff021916908373ffffffffffffffffffffffffffffffffffffffff1602179055506103e8600181905550610b59806100696000396000f3fe6080604052600436106100955760003560e01c80638da5cb5b116100595780638da5cb5b14610153578063a26759cb1461017e578063ae28f1ed14610188578063dc79a7fc146101b3578063f42c13bf146101de5761009c565b80630a93cf33146100a15780632e1a7d4d146100de57806366e41cb7146100fa5780636b59084d146101115780636fbbb55d146101285761009c565b3661009c57005b600080fd5b3480156100ad57600080fd5b506100c860048036038101906100c3919061076e565b610209565b6040516100d5919061088f565b60405180910390f35b6100f860048036038101906100f39190610745565b610249565b005b34801561010657600080fd5b5061010f610334565b005b34801561011d57600080fd5b506101266103c4565b005b34801561013457600080fd5b5061013d610454565b60405161014a91906108aa565b60405180910390f35b34801561015f57600080fd5b5061016861059a565b604051610175919061088f565b60405180910390f35b6101866105be565b005b34801561019457600080fd5b5061019d6106de565b6040516101aa9190610927565b60405180910390f35b3480156101bf57600080fd5b506101c86106e4565b6040516101d59190610927565b60405180910390f35b3480156101ea57600080fd5b506101f36106ea565b60405161020091906108cc565b60405180910390f35b6000600460008360ff16815260200190815260200160002060009054906101000a900473ffffffffffffffffffffffffffffffffffffffff169050919050565b8067016345785d8a0000811115610295576040517f08c379a000000000000000000000000000000000000000000000000000000000815260040161028c90610907565b60405180910390fd5b67016345785d8a00008211156102e0576040517f08c379a00000000000000000000000000000000000000000000000000000000081526004016102d790610907565b60405180910390fd5b3373ffffffffffffffffffffffffffffffffffffffff166108fc839081150290604051600060405180830381858888f19350505050158015610326573d6000803e3d6000fd5b5061032f610712565b505050565b3373ffffffffffffffffffffffffffffffffffffffff1660008054906101000a900473ffffffffffffffffffffffffffffffffffffffff1673ffffffffffffffffffffffffffffffffffffffff16146103c2576040517f08c379a00000000000000000000000000000000000000000000000000000000081526004016103b9906108e7565b60405180910390fd5b565b3373ffffffffffffffffffffffffffffffffffffffff1660008054906101000a900473ffffffffffffffffffffffffffffffffffffffff1673ffffffffffffffffffffffffffffffffffffffff1614610452576040517f08c379a0000000000000000000000000000000000000000000000000000000008152600401610449906108e7565b60405180910390fd5b565b6060600060025467ffffffffffffffff81111561049a577f4e487b7100000000000000000000000000000000000000000000000000000000600052604160045260246000fd5b6040519080825280602002602001820160405280156104c85781602001602082028036833780820191505090505b50905060005b600254811015610592576004600082815260200190815260200160002060009054906101000a900473ffffffffffffffffffffffffffffffffffffffff16828281518110610545577f4e487b7100000000000000000000000000000000000000000000000000000000600052603260045260246000fd5b602002602001019073ffffffffffffffffffffffffffffffffffffffff16908173ffffffffffffffffffffffffffffffffffffffff1681525050808061058a906109df565b9150506104ce565b508091505090565b60008054906101000a900473ffffffffffffffffffffffffffffffffffffffff1681565b6000339050600360008273ffffffffffffffffffffffffffffffffffffffff1673ffffffffffffffffffffffffffffffffffffffff16815260200190815260200160002060009054906101000a900460ff166106db57600060026000815480929190610629906109df565b9190505590506001600360008473ffffffffffffffffffffffffffffffffffffffff1673ffffffffffffffffffffffffffffffffffffffff16815260200190815260200160002060006101000a81548160ff021916908315150217905550816004600083815260200190815260200160002060006101000a81548173ffffffffffffffffffffffffffffffffffffffff021916908373ffffffffffffffffffffffffffffffffffffffff160217905550505b50565b60015481565b60025481565b60007f48656c6c6f20576f726c64210000000000000000000000000000000000000000905090565b60006064905090565b60008135905061072a81610af5565b92915050565b60008135905061073f81610b0c565b92915050565b60006020828403121561075757600080fd5b60006107658482850161071b565b91505092915050565b60006020828403121561078057600080fd5b600061078e84828501610730565b91505092915050565b60006107a383836107af565b60208301905092915050565b6107b88161098c565b82525050565b6107c78161098c565b82525050565b60006107d882610952565b6107e2818561096a565b93506107ed83610942565b8060005b8381101561081e5781516108058882610797565b97506108108361095d565b9250506001810190506107f1565b5085935050505092915050565b6108348161099e565b82525050565b600061084760228361097b565b915061085282610a57565b604082019050919050565b600061086a60238361097b565b915061087582610aa6565b604082019050919050565b610889816109c8565b82525050565b60006020820190506108a460008301846107be565b92915050565b600060208201905081810360008301526108c481846107cd565b905092915050565b60006020820190506108e1600083018461082b565b92915050565b600060208201905081810360008301526109008161083a565b9050919050565b600060208201905081810360008301526109208161085d565b9050919050565b600060208201905061093c6000830184610880565b92915050565b6000819050602082019050919050565b600081519050919050565b6000602082019050919050565b600082825260208201905092915050565b600082825260208201905092915050565b6000610997826109a8565b9050919050565b6000819050919050565b600073ffffffffffffffffffffffffffffffffffffffff82169050919050565b6000819050919050565b600060ff82169050919050565b60006109ea826109c8565b91507fffffffffffffffffffffffffffffffffffffffffffffffffffffffffffffffff821415610a1d57610a1c610a28565b5b600182019050919050565b7f4e487b7100000000000000000000000000000000000000000000000000000000600052601160045260246000fd5b7f4f6e6c79206f776e65722063616c6c2063616c6c20746869732066756e63746960008201527f6f6e000000000000000000000000000000000000000000000000000000000000602082015250565b7f43616e6e6f74207769746864726177206d6f7265207468616e20302e3120657460008201527f6865720000000000000000000000000000000000000000000000000000000000602082015250565b610afe816109c8565b8114610b0957600080fd5b50565b610b15816109d2565b8114610b2057600080fd5b5056fea2646970667358221220bc8f7d19d89c22f2b26a9c33a4b637dbb9520580198044d38c46695ca8c9d9bc64736f6c63430008040033",
  "immutableReferences": {},
  "source": "// SPDX-License-Identifier: MIT\npragma solidity >=0.4.22 <0.9.0;\n\nimport \"./Owned.sol\";\nimport \"./Logger.sol\";\nimport \"./IFaucet.sol\";\n\n//Faucet inherits Owned functionalities and properties\ncontract Faucet is Owned, Logger, IFaucet {\n    //address[] public funders;\n    uint256 public numberOfFunders;\n\n    mapping(address => bool) private funders;\n    mapping(uint256 => address) private lutFunders; //look up table\n\n    modifier limitWithdraw(uint256 withdrawAmount) {\n        require(\n            withdrawAmount <= 100000000000000000,\n            \"Cannot withdraw more than 0.1 ether\"\n        );\n        _; //will execute the rest of the function statement\n    }\n\n    //Receives ETH - called when you make a tx that doesnt specify function name to call\n    //external functions are part of the contract interface which means they can be called via contracts and other tx\n    receive() external payable {}\n\n    //Must implement function from Logger\n    function emitLog() public pure override returns (bytes32) {\n        return \"Hello World!\";\n    }\n\n    //Add funds to our smart contract\n    function addFunds() external payable override {\n        //msg is a global variable which contains transaction data\n        //push sender to funders array - to record address\n        //funders.push(msg.sender); -- array push\n        address funder = msg.sender;\n\n        //If current funder does not exist in funders\n        if (!funders[funder]) {\n            uint256 index = numberOfFunders++; //increment count -- assign to index in order to start at 0;\n            funders[funder] = true; //add to mapping\n            lutFunders[index] = funder;\n        }\n    }\n\n    function withdraw(uint256 withdrawAmount)\n        external\n        payable\n        override\n        limitWithdraw(withdrawAmount)\n    {\n        //checks\n        //minimum, check if the contract has enoufh balance\n        //require condition has to be met in order to execute the next line of code -- else the message will display\n        require(\n            withdrawAmount <= 100000000000000000,\n            \"Cannot withdraw more than 0.1 ether\"\n        );\n        payable(msg.sender).transfer(withdrawAmount);\n        test3();\n    }\n\n    //To return mapping, transfer values ifrom mapping into an [] and return that array\n    function getAllFunders() external view returns (address[] memory) {\n        address[] memory _funders = new address[](numberOfFunders);\n        for (uint256 i = 0; i < numberOfFunders; i++) {\n            _funders[i] = lutFunders[i];\n        }\n\n        return _funders;\n    }\n\n    function getFunderAtIndex(uint8 index) external view returns (address) {\n        //address[] memory _funders = getAllFunders();\n        return lutFunders[index];\n    }\n\n    function test1() external onlyOwner {\n        //only owner has access to\n    }\n\n    function test2() external onlyOwner {\n        //only owner has access to\n    }\n\n    //read-only call, no gas fee\n    //View - indicates that the function will not alter the storage state in any way\n    //Pure - even more strict, it wont even read the storage state\n    // function justTesting() public pure returns (uint256) {\n    //     return 2 + 2;\n    // }\n\n    //to talk to the node on the network you can make JSON_RPC http calls\n}\n\n//const instance = await Faucet.deployed()\n// instance.addFunds({from: accounts[0], value: \"2000000000000000000\"})\n",
  "sourcePath": "/Users/kentmiguel/Documents/projects/solidity-course/faucet/contracts/FaucetContract.sol",
  "compiler": {
    "name": "solc",
    "version": "0.8.4+commit.c7e474f2.Emscripten.clang"
  },
  "schemaVersion": "3.4.6",
  "updatedAt": "2022-03-23T12:00:37.941Z",
  "devdoc": {
    "kind": "dev",
    "methods": {},
    "version": 1
  },
  "userdoc": {
    "kind": "user",
    "methods": {},
    "version": 1
  }
}